:020000040800F2
:10000000005000201101000855010008E50B000810
:1000100055010008550100085501000800000000C6
:100020000000000000000000000000005501000872
:10003000550100080000000055010008E70B00080A
:100040005501000855010008550100085501000838
:100050005501000855010008550100085501000828
:100060005501000855010008550100085501000818
:100070005501000855010008550100085501000808
:1000800055010008550100085501000855010008F8
:1000900055010008550100085501000855010008E8
:1000A00055010008550100085501000855010008D8
:1000B0002D0A000855010008E9060008550100084E
:1000C00055010008550100085501000855010008B8
:1000D00055010008E90B0008550100080D0900084A
:1000E00055010008550100085501000800000000F6
:1000F0000000000000000000000000000000000000
:0C01000000000000000000005FF808F1A3
:10011000002103E00A4B5B584350043109480A4B65
:1001200042189A42F6D3094A02E0002342F8043BFF
:10013000074B9A42F9D300F00FF800F057FD7047D3
:100140000C67000800000020C0090020C009002042
:10015000CC0E0020FEE70000384B82B01A6842F057
:1001600001021A605968364A0A405A601A6822F039
:10017000847222F480321A601A6822F480221A6093
:100180005A6822F4FE025A604FF41F029A6000225D
:10019000009201921A6842F480321A601A6802F4DE
:1001A00000320192009A01320092019A1AB9009A23
:1001B000B2F5A06FF2D11A6812F4003218BF012212
:1001C0000192019A012A05D01E4B4FF000629A60FD
:1001D00002B070471C4A116841F0100111601168AB
:1001E00021F003011160116841F0020111605A68A9
:1001F0005A605A685A605A6842F480625A605A6873
:1002000022F47C125A605A6842F4E8125A601A6862
:1002100042F080721A601968084A8901FBD551685A
:1002200021F003015160516841F0020151605A68A8
:1002300002F00C02082AFAD1C6E700BF0010024003
:100240000000FFF800ED00E0002002401C4A10B55D
:10025000536803F00C03042B01D0082B01D0194B79
:100260000EE053685168C3F38343CC0303F10203E8
:1002700002D55168890301D5134900E011494B4368
:1002800003605368114CC3F30313E15C0368CB4074
:1002900043605168C1F30221615C23FA01F181607E
:1002A0005168C1F3C221615CCB40C3605268084908
:1002B000C2F381328A5CB3FBF2F3036110BD00BF6D
:1002C0000010024000127A0000093D0008000020E2
:1002D00004000020044B9A6909B1104301E022EAAE
:1002E00000009861704700BF00100240044BDA69BB
:1002F00009B1104301E022EA0000D861704700BF55
:100300000010024070B50E460446038ACA889BB2AC
:1003100023F440531343038282898988338992B23C
:100320000B43718922F4B0520B4322F00C021343A9
:100330009BB28381838AB2899BB223F4407386B0D7
:100340001343838201A8FFF781FF174A039B049D93
:100350003168944218BF1D4619226A43A389642656
:1003600013F4004F14BF4D008D00B2FBF5F5B5FB43
:10037000F6F0A28900010109120406FB115307D50A
:10038000D9003231B1FBF6F202F00702104306E069
:100390001A013232B2FBF6F303F00F03184380B2B6
:1003A000208106B070BD00BF00380140838919B1BB
:1003B0009BB243F4005303E023F400531B041B0CD3
:1003C00083817047012310B5C1F342149C4201F0B0
:1003D0001F0103FA01F101D10C3003E0022C0CBF24
:1003E0001030143003680AB1194301E023EA010117
:1003F000016010BDC1F30801818070478088C0F39F
:10040000080070470388194214BF0120002070477C
:10041000012310B5C1F3421401F01F029C4203FAFC
:1004200002F201D1838903E0022C0CBF038A838A84
:100430009BB21340028892B243B10123090A03FA26
:1004400001F10A4214BF1846002010BD184610BD25
:10045000038A828911EA030092B203D0114214BFC9
:10046000012000207047C94389B201827047000013
:1004700040F0BF60024B40F40030D860704700BFCE
:1004800000ED00E0C27810B503780AB3164A03F114
:100490006043D1684278C943C1F30221C1F1040429
:1004A00002FA04F40F22CA40817803F561430A403E
:1004B00022431201D2B283F80023037801225909A2
:1004C00003F01F0302FA03F3084A42F8213010BD7B
:1004D0005A09012103F01F0301FA03F303492032F3
:1004E00041F8223010BD00BF00ED00E000E100E067
:1004F000044B04281A680CBF42F0040222F00402E4
:100500001A60704710E000E0CA782DE9F041D40687
:1005100048BF8C780E8802F00F0348BF234316F0C3
:10052000FF0F1ED0016800244FF0010E4FF00F0C9A
:100530000EFA04F737EA06050FD1A5000CFA05F804
:1005400021EA080103FA05F5282A41EA050101D14B
:10055000476102E0482A08BF07610134082CE7D14F
:100560000160FF2E20D9416800244FF0010E4FF0AA
:100570000F0C04F108050EFA05F535EA06070FD150
:10058000A7000CFA07F821EA080103FA07F7282A5E
:1005900041EA070101D1456102E0482A08BF05612F
:1005A0000134082CE5D14160BDE8F081016170475C
:1005B000416170470F4B002214211A61DA605961C2
:1005C0009A61DA61196841F00101196058680A49B5
:1005D00001405960196821F0847121F4803119605B
:1005E000196821F480211960596821F4FE015960CD
:1005F0009A607047001002400000FFF810B50446F2
:10060000FFF7D8FF184B1A6842F480321A60196855
:10061000154A490CFBD04FF4806151605168A01E0F
:10062000C0B241EA804151605168104C41F48031C0
:100630005160216841F032012160116841F0807100
:1006400011601A680849520EFBD04A6842F0020253
:100650004A605A68C2F38102022AFAD10230044B7E
:10066000C000C0B2187010BD00100240002002404F
:10067000C009002008B56FF00400FFF739FF084BF0
:10068000084A1B68B3FBF2F3074ADBB21370C3EBF3
:10069000431203EB8203054ADB00138008BD00BF51
:1006A0000000002000127A00C1090020C2090020C9
:1006B0000B4B00221B8858430A4B58609A601A68FB
:1006C00042F001021A601968064A01F0011101297D
:1006D000F9D0136823F0010313600023936070477F
:1006E000C209002010E000E010B501212748FFF703
:1006F000AFFE002848D001212448FFF7B4FE244A69
:10070000244C138801339BB21380234A138801338E
:100710009BB21380214A138801339BB21380238834
:10072000322201339BB223805343B3F57A7F07DB38
:100730001B4801F059F9002323801A4B01221A703B
:10074000194C1422238801339BB223805343B3F501
:100750007A7F07DB154801F047F900232380144B0B
:1007600001221A70134C0A22238801339BB2238082
:100770005343B3F57A7F07DB0F4801F035F90023C7
:1007800023800E4B01221A7010BD00BF00080040EC
:10079000C8090020CC090020CE090020CA09002089
:1007A000B8630008C4090020D2090020C76300080C
:1007B000D4090020C6090020D6630008D009002013
:1007C00007B54FF4A060FFF753FE27238DF80430E0
:1007D00002238DF805308DF8063001A801238DF82D
:1007E0000730FFF74FFE03B05DF804FB1FB5012192
:1007F0004FF48040FFF76EFD01210420FFF76AFDF2
:100800001D4C4FF40073ADF8003003238DF8023017
:100810006946182320468DF80330FFF775FE4FF424
:100820008063ADF800306946042320468DF803301C
:10083000FFF76AFE4FF4165304F54054009300236B
:10084000ADF80430ADF80630ADF80830ADF80C3036
:1008500069460C232046ADF80A30FFF753FD2046C9
:100860000121FFF7A3FD012240F225512046FFF7A9
:10087000A9FD04B010BD00BF0008014030B5054619
:1008800087B001210820FFF725FD01214FF48020CA
:10089000FFF72CFD1C4C4FF48063ADF804300323AC
:1008A0008DF8063001A9182320468DF80730FFF790
:1008B0002BFE4FF40063ADF8043004230DEB03016D
:1008C00020468DF80730A4F54444FFF71DFE0023B1
:1008D000ADF80C30ADF80E30ADF81030ADF8143086
:1008E00002A90C232046ADF812300295FFF70AFD4D
:1008F0000122204640F22551FFF764FD01212046E8
:10090000FFF754FD07B030BD000C014008B50948A1
:1009100001F06AF840F225510748FFF779FD40B130
:100920000548FFF76BFDBDE808400146034801F0AC
:1009300013B808BDE563000800480040F8630008EC
:10094000014608B50448FFF755FD40210248FFF76E
:1009500059FD0128F9D108BD0048004070B5054691
:1009600001F0A8F82C4686B2631B9BB29E4204D9C4
:1009700014F8010BFFF7E4FFF6E770BD37B50C4C38
:1009800001211020FFF7A6FC03234FF480458DF8CA
:10099000063001A9102320468DF80730ADF8045029
:1009A000FFF7B2FD29462046FFF702FE03B030BD37
:1009B000001001404FF480410148FFF7F7BD00BF30
:1009C000001001404FF480410148FFF7F1BD00BF26
:1009D0000010014008B5FFF7F5FF6420FFF768FE3F
:1009E000FFF7E8FFBDE808406420FFF761BE0000A4
:1009F00008B56420FFF75CFE0948FFF7AFFF6420ED
:100A0000FFF756FE0748FFF7A9FF6420FFF750FEE7
:100A10000548FFF7A3FFBDE808406420FFF748BE84
:100A2000FB630008006400080D6400084FF080427A
:100A3000138A138A23F001031B041B0C13827047D3
:100A400010B51446002000F0B1F8204610BD026930
:100A5000C3689A4297BF806802F1FF30801800F1A6
:100A6000FF30C01A70472DE9F041C7688668054617
:100A7000F61B964288461446406804D9384400F074
:100A8000F5FE3C440AE032463844A41B00F0EEFE7A
:100A9000224608EB0601686800F0E8FEEC60BDE85D
:100AA000F0812DE9F843064689461746C5684FF0A0
:100AB00000083369B4689D4228BF1B19641BBC42FF
:100AC00028BF3C46013B5B1B9C4228BF1C4670680C
:100AD00049462844224600F0C9FEB36825449D4299
:100AE00008BF00253F1BA044A144F560E1D140466A
:100AF000BDE8F88310B5114C0323114A23616361EB
:100B0000104BA2612266104AE3614FF480632362B6
:100B1000626600231022A3626362E3622367E366D6
:100B20006367A2660949E01D00F066FF0849204698
:100B300000F062FF2023A37110BD00BFE80D00206C
:100B40001F640008E5090020D5090020286400087A
:100B50002C640008F8B5144F182300FB033503FB81
:100B60000070C36A0E46012B14463D440DD006D3D7
:100B7000022B16D12846BDE8F840FFF792BF284661
:100B8000FFF765FFA0420CD305E02846FFF75FFFA3
:100B9000844228BF0446224631462846FFF763FFB9
:100BA00000E000242046F8BDE80D0020F8B50B4B0E
:100BB00005461B780E4617460BB9FFF79BFFEFF370
:100BC00011844FF0200181F311883A4631462846BE
:100BD000FFF7C0FF84F31188F8BD00BFE80D0020C7
:100BE000FFF788BF704770477047000007B50023C4
:100BF00009200193FFF702FDFFF7C0FEFFF7F0FFAA
:100C0000FFF738FDFFF7F2FD4FF41650FFF736FE01
:100C1000FFF7EEFEFFF7D4FD4FF47A70FFF748FDC3
:100C2000FFF7D8FE094800F0DFFEFFF7D3FE0848C3
:100C300000F0DAFE4FF08042064B0021064800F03B
:100C40008BFE4FF47A70FFF733FDEEE73364000854
:100C5000466400083333F33F6764000881F00041C5
:100C600002E000BF83F0004330B54FEA41044FEA91
:100C7000430594EA050F08BF90EA020F1FBF54EA2C
:100C8000000C55EA020C7FEA645C7FEA655C00F0C8
:100C9000E2804FEA5454D4EB5555B8BF6D420CDD99
:100CA0002C4480EA020281EA030382EA000083EA1C
:100CB000010180EA020281EA0303362D88BF30BDBC
:100CC00011F0004F4FEA01314FF4801C4CEA113112
:100CD00002D0404261EB410113F0004F4FEA033371
:100CE0004CEA133302D0524263EB430394EA050FFC
:100CF00000F0A780A4F10104D5F1200E0DDB02FA6B
:100D00000EFC22FA05F2801841F1000103FA0EF2FE
:100D1000801843FA05F359410EE0A5F120050EF1C4
:100D2000200E012A03FA0EFC28BF4CF0020C43FAF5
:100D300005F3C01851EBE37101F0004507D54FF002
:100D4000000EDCF1000C7EEB00006EEB0101B1F552
:100D5000801F1BD3B1F5001F0CD349085FEA300098
:100D60004FEA3C0C04F101044FEA445212F5800FA3
:100D700080F09A80BCF1004F08BF5FEA500C50F140
:100D8000000041EB045141EA050130BD5FEA4C0C23
:100D9000404141EB010111F4801FA4F10104E9D1AC
:100DA00091F0000F04BF01460020B1FA81F308BFA3
:100DB0002033A3F10B03B3F120020CDA0C3208DD6F
:100DC00002F1140CC2F10C0201FA0CF021FA02F14A
:100DD0000CE002F11402D8BFC2F1200C01FA02F1BA
:100DE00020FA0CFCDCBF41EA0C019040E41AA2BFDF
:100DF00001EB0451294330BD6FEA04041F3C1CDAA7
:100E00000C340EDC04F11404C4F1200220FA04F0C6
:100E100001FA02F340EA030021FA04F345EA030170
:100E200030BDC4F10C04C4F1200220FA02F001FA32
:100E300004F340EA0300294630BD21FA04F02946B4
:100E400030BD94F0000F83F4801306BF81F480114D
:100E50000134013D4EE77FEA645C18BF7FEA655CC0
:100E600029D094EA050F08BF90EA020F05D054EA92
:100E7000000C04BF1946104630BD91EA030F1EBF97
:100E80000021002030BD5FEA545C05D1400049419B
:100E900028BF41F0004130BD14F580043CBF01F58E
:100EA000801130BD01F0004545F0FE4141F4700174
:100EB0004FF0000030BD7FEA645C1ABF194610464F
:100EC0007FEA655C1CBF0B46024650EA013406BF50
:100ED00052EA033591EA030F41F4002130BD00BF0F
:100EE00090F0000F04BF0021704730B54FF48064CC
:100EF00004F132044FF000054FF0000150E700BF4D
:100F000090F0000F04BF0021704730B54FF48064AB
:100F100004F1320410F0004548BF40424FF0000198
:100F20003EE700BF42004FEAE2014FEA31014FEADB
:100F300002701FBF12F07F4393F07F4F81F060512A
:100F4000704792F0000F14BF93F07F4F704730B599
:100F50004FF4607401F0004521F0004120E700BF2C
:100F600050EA010208BF704730B54FF000050AE0B3
:100F700050EA010208BF704730B511F0004502D5B4
:100F8000404261EB41014FF4806404F132045FEAB6
:100F9000915C3FF4DCAE4FF003025FEADC0C18BF5B
:100FA00003325FEADC0C18BF033202EBDC02C2F151
:100FB000200300FA03FC20FA02F001FA03FE40EAE3
:100FC0000E0021FA02F11444C1E600BF70B54FF0E3
:100FD000FF0C4CF4E06C1CEA11541DBF1CEA1355C5
:100FE00094EA0C0F95EA0C0F00F0DEF82C4481EA2D
:100FF000030621EA4C5123EA4C5350EA013518BF4D
:1010000052EA033541F4801143F4801338D0A0FB39
:1010100002CE4FF00005E1FB02E506F00042E0FBE6
:1010200003E54FF00006E1FB03569CF0000F18BFEC
:101030004EF0010EA4F1FF04B6F5007F64F5407494
:1010400004D25FEA4E0E6D4146EB060642EAC62127
:1010500041EA55514FEAC52040EA5E504FEACE2E94
:10106000B4F1FD0C88BFBCF5E06F1ED8BEF1004F97
:1010700008BF5FEA500E50F1000041EB045170BD13
:1010800006F0004646EA010140EA020081EA030157
:10109000B4EB5C04C2BFD4EB0C0541EA045170BD53
:1010A00041F480114FF0000E013C00F3AB8014F1CD
:1010B000360FDEBF002001F0004170BDC4F1000416
:1010C000203C35DA0C341BDC04F11404C4F1200597
:1010D00000FA05F320FA04F001FA05F240EA0200F2
:1010E00001F0004221F0004110EBD37021FA04F628
:1010F00042EB06015EEA430E08BF20EAD37070BDE2
:10110000C4F10C04C4F1200500FA04F320FA05F040
:1011100001FA04F240EA020001F0004110EBD37042
:1011200041F100015EEA430E08BF20EAD37070BDB2
:10113000C4F1200500FA05F24EEA020E20FA04F38B
:1011400001FA05F243EA020321FA04F001F000413A
:1011500021FA04F220EA020000EBD3705EEA430EAB
:1011600008BF20EAD37070BD94F0000F0FD101F0DA
:101170000046400041EB010111F4801F08BF013C13
:10118000F7D041EA060195F0000F18BF704703F051
:101190000046520043EB030313F4801F08BF013DD8
:1011A000F7D043EA0603704794EA0C0F0CEA135594
:1011B00018BF95EA0C0F0CD050EA410618BF52EA4E
:1011C0004306D1D181EA030101F000414FF0000054
:1011D00070BD50EA410606BF1046194652EA430662
:1011E00019D094EA0C0F02D150EA013613D195EAD6
:1011F0000C0F05D152EA03361CBF104619460AD11E
:1012000081EA030101F0004141F0FE4141F4700127
:101210004FF0000070BD41F0FE4141F4780170BD17
:1012200070B54FF0FF0C4CF4E06C1CEA11541DBF7C
:101230001CEA135594EA0C0F95EA0C0F00F0A7F87E
:10124000A4EB050481EA030E52EA03354FEA0131AB
:1012500000F088804FEA03334FF0805545EA1313BE
:1012600043EA12634FEA022245EA111545EA106586
:101270004FEA00260EF000419D4208BF964244F11D
:10128000FD0404F5407402D25B084FEA3202B61A3C
:1012900065EB03055B084FEA32024FF480104FF410
:1012A000002CB6EB020E75EB030E22BFB61A754684
:1012B00040EA0C005B084FEA3202B6EB020E75EB17
:1012C000030E22BFB61A754640EA5C005B084FEA7F
:1012D0003202B6EB020E75EB030E22BFB61A75464C
:1012E00040EA9C005B084FEA3202B6EB020E75EB57
:1012F000030E22BFB61A754640EADC0055EA060E18
:1013000018D04FEA051545EA16754FEA06164FEA5A
:10131000C30343EA52734FEAC2025FEA1C1CC0D106
:1013200011F4801F0BD141EA00014FF000004FF093
:10133000004CB6E711F4801F04BF01430020B4F154
:10134000FD0C88BFBCF5E06F3FF6AFAEB5EB030C0C
:1013500004BFB6EB020C5FEA500C50F1000041EB09
:10136000045170BD0EF0004E4EEA113114EB5C04D6
:10137000C2BFD4EB0C0541EA045170BD41F48011A9
:101380004FF0000E013C90E645EA060E8DE60CEAB1
:10139000135594EA0C0F08BF95EA0C0F3FF43BAFCE
:1013A00094EA0C0F0AD150EA01347FF434AF95EA85
:1013B0000C0F7FF425AF104619462CE795EA0C0F69
:1013C00006D152EA03353FF4FDAE1046194622E736
:1013D00050EA410618BF52EA43067FF4C5AE50EA10
:1013E00041047FF40DAF52EA43057FF4EBAE12E700
:1013F0004FF0FF3C06E000BF4FF0010C02E000BFE1
:101400004FF0010C4DF804CD4FEA410C7FEA6C5CC3
:101410004FEA430C18BF7FEA6C5C1BD001B050EA66
:10142000410C0CBF52EA430C91EA030F02BF90EA51
:10143000020F0020704710F1000F91EA030F58BF10
:10144000994208BF90422CBFD8176FEAE37040F072
:10145000010070474FEA410C7FEA6C5C02D150EA10
:10146000013C07D14FEA430C7FEA6C5CD6D152EACB
:10147000033CD3D05DF8040B704700BF8446104690
:1014800062468C461946634600E000BF01B5FFF78F
:10149000B7FF002848BF10F1000F01BD4DF808ED5F
:1014A000FFF7F4FF0CBF012000205DF808FB00BF30
:1014B0004DF808EDFFF7EAFF34BF012000205DF88A
:1014C00008FB00BF4DF808EDFFF7E0FF94BF0120D7
:1014D00000205DF808FB00BF4DF808EDFFF7CEFFD8
:1014E00094BF012000205DF808FB00BF4DF808ED17
:1014F000FFF7C4FF34BF012000205DF808FB00BFE8
:101500004FEA410C7FEA6C5C02D150EA013C0AD1FF
:101510004FEA430C7FEA6C5C02D152EA033C02D1F1
:101520004FF0000070474FF0010070474FEA410252
:1015300012F5001215D211D56FF47873B3EB625225
:1015400012D94FEAC12343F0004343EA505311F04C
:10155000004F23FA02F018BF404270474FF00000DE
:10156000704750EA013005D111F0004008BF6FF01C
:10157000004070474FF00000704700BF2DE9F04F6A
:101580008C460C460546099E002B4FD18A421746D1
:101590006BD9B2FA82FEBEF1000F0BD0CEF120055E
:1015A00020FA05F501FA0EF345EA030C02FA0EF7EC
:1015B00000FA0EF5390CBCFBF1F0BAB201FB10C316
:1015C00000FB02F84FEA154C4CEA0344A04509D948
:1015D000E41900F1FF3380F02881A04540F2258115
:1015E00002383C44C8EB0404B4FBF1F301FB134C98
:1015F00003FB02F2ACB244EA0C418A4209D9C91990
:1016000003F1FF3480F00F818A4240F20C81023BEB
:1016100039448A1A43EA00400021002E63D022FA9E
:101620000EF2002386E80C00BDE8F08F8B4207D94C
:10163000002E56D0002186E811000846BDE8F08F44
:10164000B3FA83F1002940F09380A34202D382428F
:1016500000F2FE80851A64EB03039C460120002EF5
:1016600041D086E82010BDE8F08F12B90127B7FB02
:10167000F2F7B7FA87FEBEF1000F36D1E41B4FEA4E
:1016800017481FFA87F90121B4FBF8F308FB13444C
:1016900009FB03F24FEA154C4CEA0444A24207D975
:1016A000E41903F1FF3002D2A24200F2D3800346D4
:1016B000A41AB4FBF8F008FB104809FB00F9ACB21F
:1016C00044EA0842914507D9D21900F1FF3402D209
:1016D000914500F2BA802046C9EB020240EA03407D
:1016E0009BE731463046BDE8F08F07FA0EF7CEF1A2
:1016F000200C24FA0CF34FEA1748B3FBF8FA1FFA50
:1017000087F908FB1A3520FA0CFC04FA0EF40AFBE0
:1017100009FB4CEA040C4FEA1C4242EA05439B4594
:1017200000FA0EF50AD9DB190AF1FF3280F08B803E
:101730009B4540F28880AAF1020A3B44CBEB0303AD
:10174000B3FBF8F008FB103300FB09F41FFA8CFC24
:101750004CEA03439C4207D9DB1900F1FF326ED2F9
:101760009C426CD902383B441C1B40EA0A418BE77F
:10177000C1F1200E8B4022FA0EFC4CEA030C24FA35
:101780000EF74FEA1C49B7FBF9FA1FFA8CF309FB75
:101790001A7720FA0EF88C400AFB03F548EA040495
:1017A0004FEA144848EA0747BD4202FA01F200FA3C
:1017B00001FB09D917EB0C070AF1FF3041D2BD42FA
:1017C0003FD9AAF1020A67447F1BB7FBF9F509FB71
:1017D000157705FB03F3A4B244EA0747BB4208D9D7
:1017E00017EB0C0705F1FF3027D2BB4225D9023D8C
:1017F000674445EA0A40A0FB0289FF1A4F45454667
:101800004C4614D329D066B3BBEB050367EB040742
:1018100007FA0EFECB40CF404EEA030386E888006D
:101820000021BDE8F08F2346F3E61846DAE6B8EB70
:10183000020569EB0C040138E5E70546D9E71046D7
:1018400092E78246C0E7924678E702383A4443E797
:10185000084604E7023B3C442AE7C345E7D33C463D
:10186000D1E73146BDE8F08F704700BF844641EABA
:10187000000313F0030349D1403A23D30B680360FC
:101880004B6843608B688360CB68C3600B690361FE
:101890004B6943618B698361CB69C3610B6A0362E6
:1018A0004B6A43628B6A8362CB6AC3620B6B0363CE
:1018B0004B6B43638B6B8363CB6BC36340304031B3
:1018C000403ADBD230320BD30B6803604B68436085
:1018D0008B688360CB68C36010301031103AF3D24C
:1018E0000C3205D351F8043B40F8043B043AF9D2DA
:1018F000043208D0D2071CBF11F8013B00F8013BAD
:1019000001D30B8803806046704700BF082A13D3B9
:101910008B07B1D010F00303AED0C3F10403D21A89
:10192000DB071CBF11F8013B00F8013BA4D331F8E1
:10193000023B20F8023B9FE7043AD9D3013A11F861
:10194000013B00F8013BF9D20B7803704B784370F0
:101950008B788370604670470FB410B5074B82B028
:1019600004AC54F8042B186823468168019400F0F5
:10197000CFF802B0BDE8104004B07047400400202A
:10198000F0B5054689B008460C4600F093F8431CB4
:10199000144F0393AB6B012604A902220494059013
:1019A000AC680697079601910292B3B1B4F90C3076
:1019B0009A0406D4626E43F4005322F40052A381C9
:1019C00062662146284601AA02F03CFF002814BFA7
:1019D0004FF0FF300A2009B0F0BD284602F0F2FDBA
:1019E000E4E700BF78640008024B01461868FFF77F
:1019F000C7BF00BF4004002080EA0102844612F005
:101A0000030F4FD111F0030F32D14DF8044D11F0F7
:101A1000040F51F8043B0BD0A3F101329A4312F0AA
:101A2000803F04BF4CF8043B51F8043B16D100BF83
:101A300051F8044BA3F101329A4312F0803FA4F114
:101A400001320BD14CF8043BA24312F0803F04BF9B
:101A500051F8043B4CF8044BEAD023460CF8013B08
:101A600013F0FF0F4FEA3323F8D15DF8044B7047B2
:101A700011F0010F06D011F8012B0CF8012B002AF0
:101A800008BF704711F0020FBFD031F8022B12F0DF
:101A9000FF0F16BF2CF8022B8CF8002012F47F4F9A
:101AA000B3D1704711F8012B0CF8012B002AF9D1A2
:101AB000704700BF20F0030110F00300C0F10000E8
:101AC00051F8043B00F1040C4FEACC0C6FF000021B
:101AD0001CBF22FA0CF213434FF0010C4CEA0C2C01
:101AE0004CEA0C4CA3EB0C0222EA030212EACC12E1
:101AF00004BF51F8043B0430F4D0C2F1000102EA03
:101B00000102B2FA82F2C2F11F0200EBD20070476A
:101B10002DE9F04FC1B01C460891164605460A90C3
:101B200003F03CF803680E9418461793FFF7C2FFC2
:101B300016901DB1AB6B002B00F0BD830898B0F977
:101B40000C2093B2990407D4416E42F4005321F45F
:101B50000051838141669BB21A0740F1E482089AE2
:101B60001269002A00F0DF8203F01A030A2B00F04A
:101B7000E88200231A46B0460DF1C00ADFF85C94F3
:101B8000129319930B9325932493CDF88CA0149260
:101B9000159298F800304446EBB1252B02D11AE09B
:101BA000252B03D014F8013F002BF9D1C8EB040515
:101BB0008DB1249B259A01332A44072BCAF8008053
:101BC000CAF804502592249300F330830AF1080ADE
:101BD0000B9B2B440B932378002B00F0EA814FF0F2
:101BE000FF3B5D4600231A468DF86F3019460C9373
:101BF0000793637804F1010808F10108A3F12000BC
:101C0000582800F24086DFE810F0DC053E063E066C
:101C1000E5053E063E063E063E063E063E065900E9
:101C2000AA053E066600AA033E06C603CD03CD0301
:101C3000CD03CD03CD03CD03CD03CD03CD033E06B0
:101C40003E063E063E063E063E063E063E063E0674
:101C50003E06DD0357053E0657053E063E063E0698
:101C60003E06A2053E063E06BC043E063E063E0675
:101C70003E063E06E4043E063E0611053E063E06CE
:101C80003E063E063E063E063E063E063E063E0634
:101C900044058D0457055705570595048D043E06E8
:101CA0003E069D043E06A8044A046D00B0053E06AB
:101CB000B8053E0621043E063E06ED050E9C23684F
:101CC00018460C932346002803F104030E9306DA0A
:101CD0000C9B5B420C93079B43F00403079398F81B
:101CE000003089E7AB460E9A002707983021782309
:101CF000BB4514688DF8701002F104024FF0000526
:101D00008DF871308DF86F7040F00201C0F2D1850E
:101D100020F0800141F00201079154EA05010E9282
:101D20001193AC4800F0318130AE230943EA0573CA
:101D3000290904F00F020D461C46835C06F8013D9C
:101D400054EA0503F1D130AB9B1B0D930D9B5B4512
:101D5000B8BF5B4609930023139317B1099B013366
:101D60000993079B13F002030F9302D0099B0233E0
:101D70000993079B13F08403109340F018810C9B88
:101D8000099A9D1A002D40F31281102D2599249A4D
:101D9000914F27DD189650461024BA46089E2F46CC
:101DA0000A9D04E0103F102F00F1080016DD0132FB
:101DB000894B1031072A2591249280E81800F1DD23
:101DC00023AA3146284604F0A5F8002840F0F88000
:101DD000103F102F30A82599249AE8DC3D4657463D
:101DE0008246189E01326C18072A25942492CAF85C
:101DF0000070CAF8045000F3D0809DF86F700AF1AB
:101E0000080A77B1249B013401330DF16F010122DF
:101E1000072B259424938AE8060000F31E820AF11A
:101E2000080A0F9B6BB1249B023401331CA90222C8
:101E3000072B259424938AE8060000F31A820AF1FE
:101E4000080A109B802B00F02A810D9BC3EB0B0727
:101E5000002F33DD614A102F249B0F9222DD224692
:101E60004FF0100B0A9D089C04E0103F102F0AF160
:101E7000080A16DD01331032072B259224938AE8D5
:101E8000000AF2DD23AA2146284604F043F8002880
:101E900040F09680103F102F0DF1C00A259A249B28
:101EA000E8DC144601330F9A3C44072B2594249315
:101EB0008AE8840000F3C5810AF1080A079BDD0562
:101EC00000F18E80249B0D9901330C44072B25943F
:101ED000CAF80060CAF80410249300F3E0810AF104
:101EE000080A079B580736D50C9B099A9D1A002DA6
:101EF00031DD102D249B384F22DD22461026DDF8DF
:101F000028B0089C04E0103D102D0AF1080A16DDE7
:101F1000013331491032072B259224938AE842007D
:101F2000F1DD23AA2146584603F0F4FF002847D1EB
:101F3000103D102D0DF1C00A259A249BE8DC1446B3
:101F400001332C44072B25942493CAF80070CAF857
:101F5000045000F38D840B9B0C9A09998A42ACBF04
:101F60009B185B180B93002C40F05781002324939F
:101F70000DF1C00A0DE60027BB458DF86F70C0F269
:101F8000A284079B23F080030793BBF1000F00F0AE
:101F90006784002400250027C6E623AA08990A982A
:101FA00003F0B8FF60B99DF86F700DF1C00A259C71
:101FB00027E7259B23B10A9823AA089903F0AAFFD3
:101FC000089B9B89590600F10F870B9841B0BDE82B
:101FD000F08F00BFB0640008D06400087C64000883
:101FE000119B652B40F3BB801498159900220023A8
:101FF000FFF754FA002800F06781249BB0490133B1
:1020000001340122072B259424938AE8060000F36B
:102010008B860AF1080A1D9B129A934203DB079BE9
:10202000D8077FF55EAF249B16990133179A0C44AD
:10203000072B2594CAF80020CAF80410249300F353
:1020400031870AF1080A129B5D1E002D7FF749AF08
:102050009C4A102D249B0F9240F3178110260A9F53
:10206000DDF820B005E00AF1080A103D102D40F31C
:102070000C8101331034072B25942493CAF8009067
:10208000CAF80460EFDD23AA5946384603F042FF40
:10209000002895D10DF1C00A259C249BE5E70C9BF7
:1020A000099A9F1A002F7FF7D0AE864A102F249BE3
:1020B0000F922BDD52462146BA46102537460A9C20
:1020C000089E06E0AAF1100ABAF1100F02F1080208
:1020D00018DD01331031072B25912493C2F80090AD
:1020E0005560EFDD23AA3146204603F013FF002898
:1020F0007FF466AFAAF1100ABAF1100F30AA259941
:10210000249BE6DC3E460C465746924601330F9A26
:102110003C44072B259424938AE8840000F3D6845A
:102120000AF1080A91E608990A9801F0F3F80028E4
:1021300040F05A86089B9B8903F01A030A2B7FF410
:1021400018AD0899B1F90E30002BFFF612AD2346F9
:1021500032460A9801F0A8F841B0BDE8F08F129B12
:10216000249D012B04F1010405F1010540F35D8478
:102170000123072D2594CAF800602495CAF804307D
:1021800000F36E840AF1080A169A0135179B14446D
:10219000072D25942495CAF80030CAF8042000F3CE
:1021A0006D840AF1080A0023149815990022FFF79C
:1021B00075F9129B002800F02A835E1E002E40F362
:1021C0003583404B102E0F9340F36984CDF8348053
:1021D0001027B046DDF828B0089E07E00AF1080A8B
:1021E000A8F11008B8F1100F40F3568401351034EF
:1021F000072D25942495CAF80090CAF80470EDDDE7
:1022000023AA3146584603F085FE00287FF4D8AE55
:102210000DF1C00A259C249DE2E723AA08990A989B
:1022200003F078FE00283FF4A1AEC9E623AA08997E
:102230000A9803F06FFE00287FF4C2AE0DF1C00AC9
:10224000C6E423AA08990A9803F064FE00287FF4E4
:10225000B7AE0DF1C00A259C30E623AA08990A986A
:1022600003F058FE00287FF4ABAE0DF1C00A259CA8
:10227000D7E523AA08990A9803F04CFE00287FF4BA
:102280009FAE0DF1C00A259CDBE501330F9A2C446B
:10229000072B259424938AE824007FF720AE23AAF5
:1022A00008990A9803F036FE00287FF489AE259C31
:1022B0000DF1C00A15E60A9802F084F93EE400BF69
:1022C000CC6400087C6400081D9D002D40F33B8514
:1022D000139B129A9342A8BF1346002B1D460DDD97
:1022E000249B2C440133072B2594CAF80060CAF8BC
:1022F0000450249300F314860AF1080A139B002D5E
:10230000A8BF5B1B002B1D4640F32D83C64A102D32
:10231000249B0F9240F3FB8422461027DDF828B05F
:10232000089C05E00AF1080A103D102D40F3EE84E8
:1023300001331032072B25922493CAF80090CAF873
:102340000470EFDD23AA2146584603F0E3FD002880
:102350007FF436AE0DF1C00A259A249BE4E798F885
:10236000003008F101042A2B00F04F87A3F1300060
:10237000092898BF002500F2E18614F8013B05EB1F
:10238000850500EB4505A3F130000928F5D945EA9C
:10239000E575A04632E4079B43F08003079398F865
:1023A000003029E4A3F1300000231C4618F8013B5B
:1023B00004EB840400EB4404A3F130000928F5D9B0
:1023C0000C941BE41193AB46002A40F06487079BF2
:1023D00043F010030793079B9F0640F18A820E9CEF
:1023E000073424F00704D4E9002304F108011D4652
:1023F00014460E91002A73F10003C0F27483BBF1FE
:10240000000F9DF86F70C0F29482079B23F0800349
:10241000079354EA050338D0002D08BF0A2C39D39E
:1024200030AE204629460A22002303F077FF3032DF
:1024300006F8012D2046294600230A2203F06EFFEC
:1024400004460D4654EA0503EBD17CE41193AB46F8
:10245000002A40F01C87079A12F0200300F0C78082
:102460000E9C0027073424F0070303F10801BB4545
:102470000E91D3E900458DF86F70C0F25A8222F0B8
:102480008003079354EA0503C6D1BBF1000F00F0A7
:10249000E881002440AE303406F8414D53E41193F6
:1024A000AB46002A40F0E786079A12F0200375D069
:1024B0000E9C0027073424F0070303F10801BB45F5
:1024C0000E91D3E900458DF86F700BDB22F080038D
:1024D000079354EA050306D1BBF1000F00F005860F
:1024E00000240025002730AEE20842EA4572E908E0
:1024F00004F007030D461446303354EA050206F88B
:10250000013DF1D1079AD2077FF51DAC302B3FF486
:102510001AAC3022731E06F8012C30AAD21A0D9282
:102520001E4613E41193AB46002A3FF454AF8DF8D6
:102530006F1050E7079B43F04003079398F8003073
:10254000FFF75ABB98F800306C2B00F0A184079875
:1025500040F010000790FFF74FBB002A40F08F8635
:10256000079B9F0640F10D830E9A134604330E938A
:102570000B9B1168DD171A462B46C1E90023FFF7B4
:1025800008BB1193AB46002A40F06286079B43F0DC
:1025900010030793079A12F0200389D1079911F0CD
:1025A000100200F0B0820E98BBF1000F02460468E2
:1025B0008DF86F3002F104024FF00005C0F254852F
:1025C00021F08001079154EA05010E9284D01F4644
:1025D00089E71193AB46002A40F03686079B43F00B
:1025E00010030793079A12F020037FF439AF07997D
:1025F00011F0100200F08A810E98BBF1000F024624
:1026000004688DF86F3002F104024FF00005C0F24B
:10261000288521F08001079154EA05010E921F469A
:102620007FF4FAAE31E700BF7C6400081193AB463B
:10263000002A40F01186079BC0489C0640F1DC80D0
:102640000E9C073424F0070303F108020E92D3E92D
:102650000045079A12F0010700F0398154EA05039A
:102660003FF489AC9DF8442000278DF87120079A2B
:102670003023BB458DF870308DF86F7042F0020347
:10268000C0F2F58422F0800343F002030793FFF7C2
:102690004BBB0E9911930A68002301201F468DF849
:1026A0006F309B4613930B1D09908DF898200E9365
:1026B0000D9026AEFFF755BB1193AB46002A40F0B4
:1026C000D685079B0E9C1D0704F1070440F1148377
:1026D00024F0070303F108020E921A685B68149253
:1026E0001593159B149D23F00044284621464FF076
:1026F000FF32934BFEF704FF002840F07582284616
:1027000021464FF0FF328E4BFEF7DCFE002840F0F2
:102710006B821498159900220023FEF7C9FE002849
:1027200040F0A8849DF86F700799864E21F08001D3
:10273000854B0791119903224FF0000B099247290D
:10274000D8BF1E460D92CDF84CB0FFF706BB079BD5
:1027500043F00803079398F80030FFF74DBA98F854
:10276000003001222B21FFF747BA079B43F02003DB
:10277000079398F80030FFF73FBA0E9AAB461668F9
:10278000002511938DF86F50141D002E00F0428427
:10279000BBF1000FC0F2B7835A462946304602F01B
:1027A0002BFD002800F0BE84AB46831B0D9323EA6B
:1027B000E3730E940993CDF84CB09DF86F70FFF75A
:1027C000CCBA98F8003000297FF416AA0122202103
:1027D000FFF712BA079B43F00103079398F8003004
:1027E000FFF70ABA1193AB46002A40F04C85079BCD
:1027F00056489C063FF524AF079BD90640F1B581AA
:102800000E9A00251346043314680E9321E7013B0A
:10281000013501361C44072DCAF800602495259423
:10282000CAF8043000F345810AF1080A199A013503
:1028300014441FAB072D25942495CAF80420CAF828
:1028400000307FF74CAB23AA08990A9803F062FB8B
:1028500000287FF4B5AB0DF1C00A259CFFF741BB02
:102860005F464FF0000BCDF834B030AEFFF76EBAD4
:1028700023AA08990A9803F04DFB00287FF4A0AB27
:10288000259CFFF768BB1193002A40F0E984119A58
:10289000002A3FF48EAB002301211F4609918DF8D9
:1028A00098208DF86F309B4613930D9126AEFFF75D
:1028B00058BA26480791119354EA05030E924FF037
:1028C00000077FF431AA00240025FFF72DBABBF1E1
:1028D000000F8DF86F70C0F2348222F080030793EE
:1028E00054EA05037FF420AABBF1000F7FF451AB3B
:1028F000B6E7079BDE0640F15B810E9A13461C6823
:102900000433E5170E9322462B4673E5079911F021
:10291000400740F06D820E9ABBF1000F1346146819
:102920008DF86F7003F104034FF0000580F24F81C2
:102930000E9354EA05037FF46FADABE59C64000889
:10294000FFFFEF7F906400088C640008B06400080B
:1029500023AA08990A9803F0DDFA00287FF430AB27
:10296000259C0DF1C00A139A1D9B32441746129AFA
:10297000934249DB079AD20746D412990E44F51BBD
:10298000CB1A9D42A8BF1D46002D2E460DDD249A70
:102990002C440132072A2594CAF80070CAF8045062
:1029A000249200F34F830AF1080A002EB4BF1D469B
:1029B0009D1B002D7FF795AA8A4A102D249B0F920C
:1029C0007FF763AC10260A9FDDF820B005E00AF11E
:1029D000080A103D102D7FF758AC01331034072B37
:1029E00025942493CAF80090CAF80460EFDD23AA66
:1029F0005946384603F08EFA00287FF4E1AA0DF11B
:102A0000C00A259C249BE4E7249A16980132179962
:102A10000444072A2594CAF80010CAF80400249236
:102A200000F3EB820AF1080AA7E7079BDF073FF5EF
:102A30009FAB0123072D2594CAF800602495CAF89E
:102A400004307FF7F1AE23AA08990A9803F062FADE
:102A500000287FF4B5AA0DF1C00A259C249DE5E667
:102A600023AA08990A9803F055FA00287FF4A8AA27
:102A70000DF1C00A259C249DFFF786BB23AA089967
:102A80000A9803F047FA00287FF49AAA0DF1C00AC9
:102A9000259C249DFFF787BB4646DDF83480013531
:102AA0000F9B3444072D259424958AE848007FF72E
:102AB000BBAE23AA08990A9803F02CFA00287FF4E9
:102AC0007FAA259C249D0DF1C00AAFE623AA089990
:102AD0000A9803F01FFA00287FF472AA0DF1C00AC9
:102AE000259CFFF7B2B964424FF02D0765EB450511
:102AF000BBF1000F8DF86F70FFF68EAC079B23F0D3
:102B00008003079388E4079911F0400716D00E98C8
:102B1000BBF1000F03468DF86F2003F10403048816
:102B20004FF00005C0F2AB8121F08001079154EA1B
:102B300005010E933FF4D0AC1746D4E40E9ABBF1D6
:102B4000000F134614688DF86F7003F104034FF003
:102B50000005C0F29481079A0E9322F0800207923A
:102B600054EA05027FF4BFACB6E4079B0E9A13F05B
:102B7000400F134600F054810433148800250E934F
:102B800067E5079BDE060BD4079B5D0608D50E9A0A
:102B9000136804320E92BDF82C201A80FEF7F9BF9C
:102BA0000E9A136804320E920B9A1A60FEF7F1BF68
:102BB000079B0E9A13F0400F13463FF4A0AEB2F9F4
:102BC00000400433E5170E9322462B4612E4079A81
:102BD0000E9322F08002079254EA05027FF41CACA7
:102BE00053E400BF7C640008149C22462046159CD8
:102BF00023462146FEF784FC002840F0DF82119B2B
:102C0000BBF1FF3F23F020030D9300F03982472BE7
:102C100000F03881079B43F480731093159B1F1EAF
:102C2000149B0993B7BF3B46002303F100472D23B4
:102C30000F93119B662B00F02682462B00F0F58047
:102C40000D9B21A8452B18BF5D461EA908BF0BF19F
:102C50000105049003911DA802213B460290099AA8
:102C6000019500910A9800F04FFC119B0646672BD6
:102C700040F02A82079BDA0740F1728274190998A2
:102C8000394600220023FEF709FC002840F0558158
:102C9000219B9C4206D930215A1C21921970219BFC
:102CA0009C42F9D89B1B12930D9B472B00F031815E
:102CB000119B652B40F31782119B662B1D9B139371
:102CC00000F02282139A12998A42C0F2F081079B87
:102CD000DB0700F14F8222EAE2730D926722119224
:102CE0000F9A002A40F0EB800993109B93460793BC
:102CF0009DF86F70FFF731B824F007042368149330
:102D00006368159304F108030E93EAE41446013353
:102D10000F9A2C44072B259424938AE824003FF72C
:102D200017AE0AF1080A1EE623AA08990A9803F0CA
:102D3000F1F800287FF444A90DF1C00A259CFFF7A3
:102D40006AB90E9AB8E5249BBA49013301340122CD
:102D5000072B259424938AE8060000F383800AF168
:102D6000080A2DB9129B1BB9079BD9077FF5B9A893
:102D7000249B16990133179A0C44072B2594CAF803
:102D80000020CAF80410249300F3DC810AF1080A39
:102D90006D42002D40F3A980A74A102D0F9240F3F9
:102DA0001F8122461027DDF828B0089C05E00AF1B3
:102DB000080A103D102D40F3128101331032072B09
:102DC00025922493CAF80090CAF80470EFDD23AA74
:102DD0002146584603F09EF800287FF4F1A80DF133
:102DE000C00A259A249BE4E74FF0FF30FFF7EEB8C6
:102DF0000E98BBF1000F03468DF86F2003F104031A
:102E000004884FF00005C0F2BE8121F080010791D7
:102E100054EA05010E9317467FF4FEAAFFF735BB6F
:102E20000433146800250E9313E421A81EA904900E
:102E300003911DA803210290099A3B46CDF804B0E6
:102E400000910A9800F060FB5D460646119B7419DC
:102E5000462B7FF414AF3378302B00F098811D9D02
:102E60002C440CE723AA08990A9803F053F8002889
:102E70007FF4A6A80DF1C00A1D9D259C71E70E9355
:102E8000FFF730BBBBF1000F08BF4FF0010BC1E6ED
:102E9000079B08F1010843F02003079398F80030DE
:102EA000FEF7AABE23AA08990A9803F033F800286F
:102EB0007FF486A80DF1C00A259CFFF7C4B80993DA
:102EC000109B2D2707938DF86F704FF0000BFEF7C6
:102ED00045BF23AA08990A9803F01CF800287FF43C
:102EE0006FA8259C249B0DF1C00A129901330C4454
:102EF000072B25942493CAF80060CAF804107EF7C3
:102F0000EEAFFFF7CCB93046FEF7D4FDAB46034633
:102F10004CE41D9BD81C12DB9B4510DB1393D1E6C0
:102F200023AA08990A9802F0F5FF00287FF448A820
:102F30000DF1C00A259CFFF7E1B92346B2E6119ACC
:102F4000023A1192013B9DF84420002B1D93B8BF1B
:102F50005B428DF87C20B4BF2D222B22092B8DF8EB
:102F60007D2040F3FF800DF18B000446334A82FB45
:102F70000321DA17C2EBA10101EB8102A3EB4202AC
:102F8000303209290B4604F8012DEFDC214630339D
:102F9000DAB201F8012D884240F266810DF17E011E
:102FA000234601E013F8012B984201F8012BF9D1D7
:102FB000431C1B1B0DF17E0213441FAA9B1A129A7D
:102FC0001993012A13440D9340F30D810D9B169A1A
:102FD000134400220D93139223EAE37380E6144610
:102FE00001330F9A2C44072B259424938AE824005C
:102FF0003FF76FAF0AF1080A77E723AA08990A9802
:1030000002F088FF00287EF4DBAF0DF1C00A1D9BA3
:10301000259CB2E45B46062B28BF06230D9323EACA
:10302000E373B346374613960E940993044EFEF7A6
:1030300094BE00BFCC6400087C64000867666666C6
:10304000C464000823AA08990A9802F063FF0028C4
:103050007EF4B6AF1D9B129A259CD31A0DF1C00ABF
:10306000A3E40E921F4664E40E92FFF73BBA079367
:10307000FEF75ABE2D231F468DF86F30FFF754BB65
:103080004FF0060BC6E521A81EA9049003911DA8C8
:1030900003210290099A3B46CDF804B000910A98AA
:1030A00000F032FA5D46064600EB0B04D3E6169AB2
:1030B000129B1344139A0D93002A40F39E806722BB
:1030C00023EAE37311920BE6119B472B7FF4D6ADF5
:1030D000079BDC073FF5BAAE219B9B1B12930D9B10
:1030E000472B3FF416AF1D9B2CE7079B5F46DB0782
:1030F00005D540AE302306F8413DFEF724BECDF89D
:1031000034B030AEFEF722BE002B40F38C80BBF112
:10311000000F4AD1079AD10747D41A4623EAE3732E
:103120000D92DDE52BEAEB73CDF834B009938346BD
:103130000E9413909DF86F70FEF70FBEA046002509
:10314000FEF75CBD23AA08990A9802F0E3FE002866
:103150007EF436AF0DF1C00A1D9D259C249B17E619
:10316000219B9FE5303330228DF87F308DF87E2013
:1031700020AB22E7169A139B134467220D931192FA
:1031800023EAE373ACE50E931746FFF7D2BB099829
:10319000394600220023FEF781F900287FF45FAE54
:1031A000C5F101051D952C4469E5139B169A9D18E0
:1031B00005EB0B030D9323EAE37391E50799384E72
:1031C00021F08001374B0791119903224FF0000B3A
:1031D00009924729D8BF1E460D92CDF84CB09DF8F4
:1031E0006F70FEF7BABD079B13F001037FF4EEAEDC
:1031F00013930D9B23EAE37372E5139B0D9AC3F1BE
:1032000001031A4413460D9259E70E9898F80130BD
:1032100005680430002D0E90A046BEF6EDAC4FF0D0
:10322000FF35FEF7E9BCBBF1000F02D1079BDA07BF
:1032300007D5169B5D1C05EB0B030D9323EAE37387
:103240004EE501230D934BE58DF86F10FFF7C6B9DE
:103250008DF86F10FFF79AB98DF86F10FFF7EBB983
:103260008DF86F10FFF713BB0DF17E03A5E68DF807
:103270006F10FFF726BA8DF86F10FFF715B98DF8AC
:103280006F10FFF76DB98DF86F10FFF7B0BA8DF8BA
:103290006F10FFF7E0B88DF86F10FFF798B800BF18
:1032A0009864000894640008F0B50C468989ADF272
:1032B0006C4D656E21F00201666AADF80C10E16993
:1032C000E789199500250791099606951AAE4FF4DE
:1032D000806569460096049602950595ADF80E70D6
:1032E0000646FEF715FC051E07DB3046694601F071
:1032F000D5F8002818BF4FF0FF35BDF80C305B063D
:1033000003D5A38943F04003A38128460DF26C4DF9
:10331000F0BD00BF38B5304B054618680C4610B1FB
:10332000836B002B38D0B4F90C2093B218070CD55E
:103330002069A8B113F001021ED0636900225B422C
:10334000A361A260F0B1002038BDD9063BD5580773
:1033500025D4206942F00803A3819BB20028E9D15B
:1033600003F42072B2F5007FE4D02846214601F034
:1033700053FCA3892069DDE7990758BF6269A26001
:103380000028E0D1B4F90C301A06DDD543F0400333
:10339000A3814FF0FF3038BD01F014F9C3E7216B72
:1033A00051B104F14003994204D0284601F062F97A
:1033B000B4F90C20002323632069002322F02402A7
:1033C00084E80900C6E742F0400209232B604FF071
:1033D000FF30A28138BD00BF400400202DE9F04F2E
:1033E00003690F6983B09F4200F38980013F01F1B7
:1033F000140600F1140A56F827305AF82720013332
:10340000B2FBF3F8BB00009306EB030953440193AE
:10341000B8F1000F3BD000231C46B446D6465CF8FA
:1034200004BBDEF800501FFA8BF208FB02324FEAB1
:103430001B4B130C08FB0B3392B2A41A1FFA83FB2D
:10344000AAB22244CBEB154404EB224492B242EAE6
:103450000442E1454EF8042B4FEA24444FEA13435B
:10346000DDD2009B5AF803308BB9019C231F9A458B
:103470000CD254F8043C4BB9A4F1080302E01A68DA
:10348000043B1AB99A4507F1FF37F8D307610446A0
:1034900002F0BCF900282EDB00235546194608F13E
:1034A000010856F8042B2B6890B2081A120C99B236
:1034B000C2EB1343421803EB224392B242EA0342A7
:1034C000B14545F8042B4FEA2341EAD25AF82720A8
:1034D0000AEB87037AB91A1F92450BD253F8042CD2
:1034E00042B9083B02E01A68043B1AB99A4507F151
:1034F000FF37F8D32761404603B0BDE8F08F0020C6
:1035000003B0BDE8F08F00BF2DE9F04F016C99B01A
:10351000814692469B46259C49B1426C01239340CB
:103520008B604A6001F08CFF0023C9F84030BBF18A
:10353000000FD84633DB00232360A34B1A4608EA6A
:103540000303934214D00022002350465946FDF74E
:10355000A5FF054648B3249A01231360269B002B40
:1035600000F0C58099481860013819B0BDE8F08FA7
:1035700042F20F73249A1360BAF1000F00F0A28098
:103580009348269B002BF0D0C378002B00F0B1802D
:1035900000F10803269A136019B0BDE8F08F0123EB
:1035A0002BF000482360C346C7E716AA17AB019269
:1035B000009352465B46484602F0DCF95FEA185435
:1035C000099040F08880169D179C2C4404F23243E9
:1035D000202B40F38A82C3F1400304F2124008FA20
:1035E00003F82AFA00F040EA0800FDF779FC01230D
:1035F000013CA1F1F8710F930022764BFDF732FBED
:103600006BA3D3E90023FDF7E1FC6BA3D3E900230F
:10361000FDF72AFB064620460F46FDF771FC68A31E
:10362000D3E90023FDF7D2FC02460B46304639466B
:10363000FDF71AFB06460F46FDF778FF00220390C0
:10364000002330463946FDF733FF002840F0298239
:10365000039E162E00F222825F49524601EBC601FC
:103660005B46D1E90001FDF741FF002800F04282EE
:10367000731E039300230D932C1B631E049300F110
:103680002B8200230693039B002BC0F21C82049A1A
:103690000C9311461944002304910B93229B092B90
:1036A00029D8052B40F35286043B22930025229B08
:1036B000023B032B00F22F86DFE813F027032002E2
:1036C00032035304424B454AC8F31300002814BF89
:1036D0001846104655E7CBF3130343F07F510F957F
:1036E0005046A4F2FF3441F44011169D84E73C4853
:1036F0003BE7C31C4EE70021C9F84410484622911D
:1037000001F076FE4FF0FF33229A07930E930123C8
:1037100008902392C9F840000A93179B002BC0F22F
:10372000CA80039A0E2A00F3C6802B4B03EBC20318
:1037300018CBCDE90434239B002BC0F2FC82564603
:103740005F46DDE904AB304652465B463946FDF73D
:1037500067FDFDF7EBFE0446FDF7D2FB52465B46E4
:10376000FDF734FC02460B4630463946FDF77AFA3F
:10377000079E089F04F13005012E3D7002460B465E
:1037800007F101055ED00022164BFDF71FFC002259
:10379000002306460F46FDF781FE002878D1CDF8BC
:1037A0001890DDF81CA0DDF820B0DDE9048928E0E0
:1037B00061436F63A787D23FB3C8608B288AC63F37
:1037C000FB799F501344D33F0000F07FCD64000885
:1037D000EC6400080000F83FF0640008E0640008B2
:1037E000CC640008000024400022C34BFDF7EEFB30
:1037F0000022002306460F46FDF750FE002840F049
:10380000B38342464B4630463946FDF709FDFDF786
:103810008DFE0446FDF774FB42464B46FDF7D6FB92
:1038200002460B4630463946FDF71CFA04F13006D5
:1038300005F8016BCBEB0506564502460B46D3D186
:10384000DDF8189010461946FDF70EFA06460F46A9
:1038500002460B46DDE90401FDF72AFE40B9DDE929
:10386000040132463B46FDF719FE88B1E3070FD548
:1038700015F8014C6B1E089A04E09A4200F02C8463
:1038800013F8014D392C03F10105F6D001341C70F9
:103890000999484601F0D4FD0022039B2A70249A1E
:1038A00001331360269B002B00F0A88308981D604D
:1038B00019B0BDE8F08F0A9A002A00F01281229A0E
:1038C000012A40F35A82079B0B9A5F1EBA42C0F24C
:1038D0009883D71B079B002BC0F28C84069D079B07
:1038E000069A01211A440692049A48461A44049200
:1038F00001F03EFE064665B1049900290B4608DD3D
:10390000A942A8BF2B46069AED1AD21ACB1A0692E4
:1039100004930B9B002B40F3FD820A9A002A00F0CF
:103920000382002F00F0008231463A46484601F0FB
:10393000C7FEDDF82480014642460646484601F0AF
:1039400021FE41460446484601F07AFD0B9BDB1BF5
:103950000B9340F0E8810121484601F009FE0C9BE1
:103960008046002B00F01B8201461A46484601F0B3
:10397000A7FE229B8046012B40F3F9820027D8F84E
:10398000103008EB8303186901F0A4FDC0F120009A
:10399000049A104410F01F0000F0F881C0F12003D9
:1039A000042B40F3CB84069BC0F11C000344069318
:1039B0001346034405440493069B002B05DD214672
:1039C0001A46484601F0CCFE0446049B002B05DD58
:1039D00041461A46484601F0C3FE80460D9B002B27
:1039E00040F07D82079B002B40F396820A9B002BC0
:1039F00040F0F681DDF820A0079F554604E02146FF
:103A0000484601F027FD044641462046FFF7E6FC04
:103A1000303005F8010BCAEB0503BB424FF00A0238
:103A20004FF00003EBDB089B079A8246012AACBFEC
:103A30009B1801331D464FF0000B214601224846DA
:103A400001F08EFE4146099001F0E0FE002840F3AF
:103A50000E8315F8012C6B1E089904E08B4200F0D0
:103A6000798213F8012D392A03F10105F6D00132CC
:103A70001A704146484601F0E3FC002E3FF408AFBF
:103A8000BBF1000F05D0B34503D05946484601F0BD
:103A9000D7FC3146484601F0D3FCF9E601230D93EB
:103AA000EAE5DDF80C804046FDF72AFA02460B46AF
:103AB00030463946FDF7F2FC00287FF4C9AD08F125
:103AC000FF330393C4E5069A039BD21A5B420B9320
:103AD000002306920C93E1E55B42069300230493D6
:103AE000D1E50B9F069D0A9E05E7C3F120080AFA5F
:103AF00008F07AE50D90BFE50000244000230A930A
:103B0000039B239A13440E930133002B079340F336
:103B10008582079C26460021172EC9F844100BD930
:103B2000012204235B0003F11400B042114602F1AC
:103B30000102F7D9C9F84410484601F059FC0E2C8F
:103B40000890C9F840003FF6E8AD002D3FF4E5AD20
:103B50005746D8460399CDE91078002940F393825F
:103B6000924B01F00F020E1103EBC203F006D3E9F2
:103B7000004540F14E828E4B5046D3E9082359460A
:103B8000FDF74EFB82468B4606F00F064FF003080A
:103B900086B1874FF10709D5D7E90023204629468A
:103BA000FDF714FA04460D4608F10108761007F1F6
:103BB0000807EFD122462B4650465946FDF730FB09
:103BC00006460F460D9B43B100227A4B30463946DC
:103BD000FDF76EFC002840F023834046FDF790F986
:103BE00032463B46FDF7F2F9734B0022FDF73CF8F5
:103BF000079B0446A1F15075002B00F0E181039B67
:103C00001393079B12930A9B002B00F09882129A41
:103C1000664B002003EBC20353E902236749FDF71B
:103C2000FFFA22462B46FDF71DF882468B463046AA
:103C30003946FDF77BFC0446FDF762F902460B4668
:103C400030463946FDF70EF83034089DE4B206469A
:103C50000F462C7002460B46504659460135FDF77B
:103C600045FC00284ED132463B4600205149FCF726
:103C7000F9FF02460B4650465946FDF737FC00282F
:103C800040F00E83129A012A40F3B481129B089AE5
:103C9000134498460FE032463B4600204549FCF766
:103CA000E1FF52465B46FDF703FC002840F0F88236
:103CB000454500F09F81504659460022404BFDF794
:103CC00085F900223E4B82468B4630463946FDF749
:103CD0007DF90F460646FDF729FC0446FDF710F96D
:103CE00002460B4630463946FCF7BCFF3034E4B29E
:103CF00005F8014B52465B4606460F46FDF7D8FBDA
:103D00000028C8D0139B0393C2E500230A93239B8A
:103D1000002B40F388811E461C460E930793FAE65B
:103D200001230A93F3E709940B9A0999484601F095
:103D3000C7FC04460FE6079B002B3FF700AD40F0A1
:103D4000D982DDE9040100221E4BFDF73FF95246FE
:103D50005B46FDF7C1FBDDF81C804646002800F0FD
:103D6000F180239B089DDB4303934146484601F0C5
:103D700067FB002E3FF48CAD8BE60F9A002A00F013
:103D8000418203F233430B9F069DA9E51C20069B4D
:103D9000054403440693049B034404930CE6229BCE
:103DA000012B40F381820C9F0120F1E5F0640008B3
:103DB000C86500080000F03F00001C400000E03F24
:103DC0000000244000001440314600230A224846E7
:103DD00001F040FB0E9B0646002B40F397820793B1
:103DE000002D05DD31462A46484601F0B9FC06465D
:103DF000002F40F07B810696079B089A013BD31861
:103E0000099317460AF00103C246DDF818B00A9379
:103E100051462046FFF7E2FA31460546204601F0BA
:103E2000F5FC5A4604905146484601F00FFDC26821
:103E3000804605F13003002A49D101462046079308
:103E400001F0E4FC41460690484601F0F9FA069A72
:103E5000079B2AB9229919B90A99002900F03682DC
:103E600004990029C0F2E48005D1229919B90A9970
:103E7000002900F0DD80002A00F34C81099A07F147
:103E8000010897423B70454600F0538121460023CC
:103E90000A22484601F0DEFA5E45044631464FF0FC
:103EA00000034FF00A0248460BD001F0D3FA5946FE
:103EB000064600230A22484601F0CCFA47468346CC
:103EC000A6E701F0C7FA474606468346A0E7014643
:103ED0004846069301F0B4FA0122069BC0E741462A
:103EE000204601F093FC0028BFF67CAD2146039CE0
:103EF0000023013C0A224846039401F0ABFA0A9BD6
:103F00000446002B7FF460AF0E9B002B40F3F6813C
:103F100007936FE5099C1EE5229B022B7FF766AD98
:103F2000079B002B40F07A8141460522484601F06C
:103F300091FA01468046204601F068FC0028099469
:103F40007FF70FAF039A08993123013203920B7068
:103F50004D1C0AE7039A312301320392089A137029
:103F600087E501230A93CBE5DDF8189090E4BAF1D8
:103F7000000F7FF403ADCBF31303002B40F040811F
:103F80002BF000473F0D3F0537B1069B012701335A
:103F90000693049B013304930C9B0120002B3FF4F8
:103FA000F7ACECE44046FCF7ABFF32463B46FDF78E
:103FB0000DF80022BF4BFCF757FE0446A1F15075E7
:103FC000304639460022BC4BFCF74CFE22462B46BD
:103FD00006460F46FDF78AFA8046002840F0068123
:103FE000224605F1004330463946FDF761FA08B133
:103FF0004646B6E6DDE910ABFFF78FBB0898FFF742
:10400000B4BA0B9B0C9AFB1A1A440B970C9200271C
:1040100060E4DDE910AB4FF00208B9E51C46002171
:10402000C9F8441088E5012423940E940794F6E718
:10403000002AD046CDF818B09A4611DD214601225B
:10404000484601F08DFB4146044601F0DFFB0028A5
:1040500040F34981BAF1390F00F0078105F1310AC7
:10406000B34687F800A07D1C069E099401E504D1A3
:104070001AF0010F01D0ECE4154615F8013C6A1E58
:10408000302BF9D0F5E4039B5C42002C00F0C1809A
:10409000DDE91001894B04F00F0203EBC203D3E901
:1040A0000023FCF793FF241106460F4600F02B81F6
:1040B000834D4FF00208E20709D5D5E900233046C9
:1040C0003946FCF783FF06460F4608F101086410E5
:1040D00005F10805EFD175E5089930220A70039AB9
:1040E00015F8014C01320392FFF7D0BB71684846C6
:1040F00001F07EF90546336906F10C019A1C920025
:104100000C30FDF7B3FB29460122484601F028FB9D
:10411000069071E6392BCDF818B0D04600F0A58096
:1041200003F1010AB34687F800A07D1C069E09949E
:104130009FE45A46D046B3469A4616467DE4129B03
:104140005E4903F1FF3A01EBCA012246D1E90001C1
:104150002B46FCF73BFFCDE9140139463046FDF70D
:10416000E5F90446FCF7CCFE0B46024639463046DC
:10417000FCF778FD129B0F4608993034012B064658
:104180000C7001F101051FD0129B089AA846134438
:104190009B4600224B4B30463946FCF717FF0F4633
:1041A0000646FDF7C3F90446FCF7AAFE02460B4695
:1041B00030463946FCF756FD303408F8014BC3450C
:1041C00006460F46E5D1554400223F4BDDE9140178
:1041D000FCF74AFD32463B46FDF76AF900284CD011
:1041E000139B039315F8014CFFF744BB4FF00008F5
:1041F0004646A7E6069B079A9D1A0023FFF770BB69
:104200000027C9E6169B0B9FC3F13603069DFFF7F7
:1042100067BBDDE910674FF00208D3E40994A0E51D
:10422000079B002B3FF4BEAE0E9B002B7FF7E2AE48
:104230000022244B30463946FCF7C8FE06460F469E
:1042400008F10100FCF75CFE32463B46FCF7BEFE7F
:104250000022184BFCF708FD039A0E9B013A044616
:104260001392A1F150751293CDE43922B34609940B
:10427000069E3A707D1CFFF7EEBBDDE9142300209B
:104280001149FCF7EFFC32463B46FDF72FF908B920
:10429000B0E6154615F8013C6A1E302BF9D031E521
:1042A000139B0393FFF7E6BABAF1000F7FF47BADDF
:1042B00061E600BF00001C4000001440F0640008EC
:1042C000C8650008000024400000E03F392BCDF80D
:1042D00018B0D046DDF810B09A46C6D0BBF1000F3A
:1042E0003FF7BCAEBCE67FF4BBAE1AF0010F3FF463
:1042F000B7AEAFE64FF00008464632E5229B022BF0
:1043000021DC0E9B04E64FF002085BE4229B022BAB
:1043100019DC0E9B63E50024C9F844402146484659
:1043200001F066F84FF0FF3307930E9301230890D6
:104330002394C9F840000A93FFF7EFB93FF43CAB70
:10434000C0F13C0023E50E9B0793E9E50125FFF74B
:10435000AEB900BFB1F90C302DE9F0419AB20D466B
:10436000110780463CD46A6843F40063002AAB819D
:1043700073DDAC6A002C4BD09BB203F48052002159
:1043800092B2D8F80060C8F80010002A69D02A6DEF
:104390005F0705D569682B6B521A0BB1EB6BD21A0C
:1043A0000023E9694046A047441C3CD0B5F90C30D5
:1043B000296923F400630022AB81DB0485E8060051
:1043C00049D4296BC8F8006011B305F14003994244
:1043D00002D0404600F04EF900202863BDE8F0818D
:1043E0002E69AEB190072C680CBF6B6900232E605C
:1043F000A41BAB600AE0234632466F6AE969404677
:10440000B8470028A4EB0004064404DD002CF2DCCD
:104410000020BDE8F081AB894FF0FF3043F040034E
:10442000AB81BDE8F081D8F800201D2AF3D81A4BE3
:10443000D34003F0010383F00104002BEBD0B5F966
:104440000C30296923F400632960D9046C60AB81C6
:10445000B7D5002AB5D12865B3E7EA6B002A88DC16
:10446000D6E70123E9694046A047431C024602D033
:10447000AB89AC6A8CE7D8F80030002BF8D01D2B44
:1044800001D0162B02D1C8F80060C1E7AB8943F018
:104490004003AB81BDE8F0810100402010B5044627
:1044A00082B008B1836B53B1B1F90C0008B902B006
:1044B00010BD204602B0BDE81040FFF74BBF019190
:1044C00000F080F80199EFE7014900F03FBB00BF21
:1044D000D95F00082DE9F04F074635487D68002474
:1044E00007F53B7204230321F863C7F8E412C7F809
:1044F000E822C7F8E04283B02C606C60AC606C6668
:10450000EC812C616C61AC61AB81214605F15C00F2
:10451000082200F01BFFDFF89CB0BE68DFF898A00F
:10452000DFF89890DFF8988001230922C5F820B0C1
:10453000C5F824A0C5F82890C5F82C80ED61214667
:10454000F381B28106F15C0034607460B46074661B
:1045500034617461B4610822019300F0F7FEFD68D4
:1045600012200222F661C6F820B0C6F824A0C6F8D0
:104570002890C6F82C802146A881EA812C606C60C6
:10458000AC606C662C616C61AC6105F15C0008226A
:1045900000F0DCFE019BED61C5F820B0C5F824A059
:1045A000C5F82890C5F82C80BB6303B0BDE8F08F38
:1045B000C9440008155E0008395E0008755E0008F1
:1045C000955E0008836B03B17047FFF783BF00BFA0
:1045D000704700BF704700BFF8B50C46224F064633
:1045E00000F002FFBB685D6825F00305291B01F69A
:1045F000EF7121F47F6121F00F01A1F58054B4F532
:10460000805F07DB0021304601F0F2FBBB682B44E2
:10461000984204D0304600F0E9FE0020F8BD614227
:10462000304601F0E5FB01300DD0104BBA68196837
:104630002D1B45F001053046091B5560196000F03F
:10464000D5FE0120F8BD0021304601F0D1FBBA684B
:10465000831A0F2BDEDD064C0449246843F0010366
:10466000001B53600860D5E7440400209C0E002026
:1046700050080020002945D02DE9F0410D46804624
:1046800000F0B2FE55F8047C6A49A5F1080427F051
:104690000103E2188E685068B24220F0030062D035
:1046A000FE0750600BD455F8087C01F1080EE41B9E
:1046B000A5683B4475456FD0E768EF60BD6015188D
:1046C0006D68ED0742D543F001026260E350B3F537
:1046D000007F18D2DB0848689D100122013351F891
:1046E000337002FA05F501EBC3022843083AE26091
:1046F000A760486041F83340FC604046BDE8F041A7
:1047000000F074BE70475A0A042A53D89A0902F17D
:1047100039077F0002F1380501EB870051F82720A7
:104720000838904243494DD0516821F003018B4233
:1047300002D292689042F7D1D068E060A2608460B3
:10474000D4604046BDE8F04100F050BE95683A4F55
:104750000344BD423FD0D06843F00102E860856069
:104760006260E350B3E7FF07034407D455F8085CE1
:10477000641BE268A0682B44C26090602F4A43F03B
:1047800001001268606093428C60B6D32C4B4046A7
:104790001968FFF721FFB0E711184968C90744D429
:1047A00091680344D26843F00100CA609160606080
:1047B000E350A2E7142A17D802F15C077F0002F148
:1047C0005B05A9E7AA104B68012505FA02F213431D
:1047D0004B600246B1E743F001024C610C61E560B9
:1047E000A5606260E35088E7542A06D81A0B02F1EC
:1047F0006F077F0002F16E058EE7B2F5AA7F06D83B
:10480000DA0B02F178077F0002F1770584E740F2C6
:104810005450824206D89A0C02F17D077F0002F1C3
:104820007C0579E7FE277E2576E743F0010262608A
:10483000E35062E7440400204C0400204C080020B0
:10484000980E00209368002B00F0AB802DE9F04F0C
:104850008B8985B00C4619070290164628D5226927
:1048600032B303F002081FFA88F0356878B34FF0CE
:104870000009C846DFF8D0A2B8F1000F00F08B8025
:10488000D04543464A4628BF5346E1690298676AC5
:10489000B847002840F3A580B36881441B1AC0EBD9
:1048A0000808B360002BE7D1002005B0BDE8F08F09
:1048B00021460298FEF72EFD002840F03C81A38996
:1048C000356803F002081FFA88F00028CFD113F0F2
:1048D000010940F090804F460196002F56D09A056E
:1048E000D4F808805FD54745C246C0F0BF8013F4B6
:1048F000906F00F0BD8062692068216902EB420878
:10490000C1EB000A08EBD8780AF101004FEA680809
:1049100038444045424684BF804642465B0540F1EC
:10492000F2801146029800F0BBF98346002800F09F
:10493000058152462169FCF799FFA38923F490630E
:1049400043F08003A381CAEB08030BEB0A00C4F811
:104950001480BA46B846C4F810B02060A36052462E
:10496000494600F08FFCA0682368C8EB0000A060F7
:10497000384653442360019A814493683F1A1B1AB6
:104980009360002B90D0A389002FA8D1D5F8009078
:104990006F680835A1E7D5F80090D5F80480083590
:1049A0006AE70020704720682369984203D862694B
:1049B000974280F08380B84528BFB84649464246B2
:1049C00000F060FCA3682268C8EB03034244A360C4
:1049D0002260002B48D121460298FFF75FFD002896
:1049E00042D0B4F90C3043F040034FF0FF30A381C4
:1049F00005B0BDE8F08F8046824681460190B9F14E
:104A0000000F29D0019B002B4BD0C845C34628BFBF
:104A1000CB46206823695F469842626903D9A36840
:104A200013449B455CDC934524DB1346676A52467E
:104A3000E1690298B847071ED3DDB8EB070827D015
:104A4000B368BA44DB1BC7EB0909B360002B3FF422
:104A50002BAFB9F1000FD5D10023D5F800A0D5F8C0
:104A6000049001930835CAE7404684E7B846BA4641
:104A7000206874E75A46514600F004FCA268236897
:104A8000CBEB02025B44B8EB0708A2602360D7D1EE
:104A900021460298FFF702FD0028A2D1CDF804803C
:104AA000CEE74A460A21504600F0A6FB00283DD03A
:104AB00001300123CAEB00080193A6E76FF0004321
:104AC000BB4228BF3B4693FBF2F3E16902FB03F3D1
:104AD00002984A46666AB04700283FF74CAF80E725
:104AE0001A465146039300F0CDFB2268039B2146F2
:104AF0001A4422600298FFF7D1FC039B00287FF440
:104B000070AF1F4699E7029800F088FF834600289F
:104B10007FF419AF029D21692846FFF7ABFDB4F978
:104B20000C300C2223F080032A605CE7012309F19A
:104B30000108019369E74FF0FF30B6E6029A0C23B3
:104B40001360B4F90C304EE700FCFF7F2DE9F84309
:104B500010F538761ED0884607464FF00009756874
:104B6000B468013D10D4A389013D012B08D9B4F9E3
:104B70000E30013304D021463846C04749EA0009C7
:104B80006B1C04F16804EED13668002EE7D148466C
:104B9000BDE8F883B1464846BDE8F883044A054BB2
:104BA0001268506B002808BF1846F030704700BFED
:104BB000400400205408002070B50E46B1F90E10D4
:104BC00090B0002914461D4614DB01AA01F0A2FA98
:104BD00000280FDB029A4FF4806302F47042A2F5C2
:104BE0000052B2FA82F24FF4006052092A60236048
:104BF00010B070BDB289002002F0800292B228602D
:104C00001AB14023236010B070BD10464FF480638A
:104C1000236010B070BD00BF8A890B46920706D58D
:104C200001F1430201211A601A6159617047F0B520
:104C300083B001AB6A460C460546FFF7BDFF0099FD
:104C40000646284600F02CF8B4F90C30D0B19DE8A7
:104C50000600124F43F08003EF63A38120602061C0
:104C600061611AB93343A38103B0F0BD2846B4F99A
:104C70000E1001F063FAB4F90C300028F2D043F0C2
:104C80000103EFE79A05EFD404F1430243F0020376
:104C90000121A381226022616161E5E7C944000826
:104CA0002DE9F04F01F10B05162D83B0064640F2B9
:104CB000A08035F0070500F1C080A94200F2BD8058
:104CC00000F092FBB5F5FC7FC0F090826B0A00F01B
:104CD000BB80042B00F27781A80900F1390E4FEA5E
:104CE0004E013830BE4F07EB81014C680839A142B4
:104CF00007D1AEE0002A80F2AE80E468A14200F065
:104D0000A880636823F003035A1B0F2AF2DDB4491D
:104D10003C6901F1080E744500F0A881636823F036
:104D200003035A1B0F2A00F38E81002AC1F814E0F6
:104D3000C1F810E080F29380B3F5007F80F05C81D1
:104D4000DB084A684FEAA3094FF0010C013351F820
:104D500033800CFA09F901EBC30C49EA0202ACF109
:104D6000080CC4F80CC0C4F808804A6041F833400D
:104D7000C8F80C40831001249C4094427CD8144213
:104D800006D120F003006400144200F10400FAD0C0
:104D900007EBC009CC468046DCF80C108C4507D1E7
:104DA00066E1002A80F27481C9688C4500F0608158
:104DB0004B6823F003035A1B0F2AF2DD0C46CB6825
:104DC00054F808CF45F00108C1F804800D4442F0C2
:104DD0000101CCF80C303046C3F808C07D613D615C
:104DE000C5F80CE0C5F808E06960AA5000F0FEFACA
:104DF0001FE0102921D800F0F7FA10250623022021
:104E0000774F07EB83035C68A3F10802944200F03C
:104E100038816368E16823F0030323445A68A56876
:104E200042F00102E96030468D605A6000F0DEFA1F
:104E30000834204603B0BDE8F08F002420460C2340
:104E4000336003B0BDE8F08F80214FF0400E3F206B
:104E500048E770465BE723445A68E168DFE723448C
:104E60005A68304642F001025A60083400F0BEFA37
:104E7000204603B0BDE8F08FBC68636823F00308E8
:104E8000A84504D3C5EB08030F2B00F38C80554BCA
:104E9000DFF860911A68D9F800302A44013304EB36
:104EA000080A00F0608102F580520F3222F47F621E
:104EB00022F00F0211463046019200F099FFB0F146
:104EC000FF3F8346019A00F05881824500F2FC8042
:104ED000454BDA4519681144196000F05381D9F83F
:104EE0000000DFF810E101301BBFCAEB0B0A514490
:104EF000CEF800B019601BF0070100F01781C1F176
:104F00000800C1F58051834408315A44C2F30B02B2
:104F1000C2EB010949463046019300F069FF431C8A
:104F2000019B00F03F81CBEB00024A4442F00102BA
:104F30001968BC424944C7F808B01960CBF804208E
:104F4000DFF8A49016D0B8F10F0F40F2FD80626830
:104F5000A8F10C0323F0070302F00102E0184FF060
:104F6000050E1A430F2B6260C0F804E0C0F808E099
:104F700000F21C811D4BBC681A68914288BF196001
:104F80001B4B1A689142626888BF196022F00302C5
:104F90009542A2EB050301D80F2B04DC304600F04C
:104FA00025FA002445E745F0010243F001032544BA
:104FB00062603046BD6008346B6000F017FA20462E
:104FC00003B0BDE8F08F142B71D9542B00F2A480EC
:104FD000280B00F16F0E4FEA4E016E3082E600BFE3
:104FE00044040020980E00209C0E0020940E002007
:104FF000900E0020500800205A0A042A5ED9142A74
:1050000000F2B38002F15C0149005B3207EB810CD6
:1050100057F82110ACF1080C8C45DFF8D88100F06E
:1050200088804A6822F00302934202D289688C4544
:10503000F7D1D1F80CC07A68C4F80CC0A160CCF8E4
:105040000840CC6096E645F0010742F00103254494
:10505000676030464D610D61C5F80CE0C5F808E0A9
:105060006B60AA50083400F0C1F9E2E64A6881E6B4
:1050700008F1010818F0030F0CF1080C7FF48CAE56
:1050800030E0DC68A34208BF02303FF440AEC0E627
:105090000C460B445A68C96854F8085F42F0010294
:1050A0005A603046E9608D6000F0A0F9C1E603F176
:1050B0005C0E03F15B004FEA4E0113E69A0902F120
:1050C000390149003832A1E7BC424A4B3FF400AFF6
:1050D0009C68626822F003025AE759F8083999453A
:1050E00040F0828010F0030F00F1FF30F5D17B68B3
:1050F00023EA04037B6064009C423FF6BDAE002CB3
:105100003FF4BAAE1C4240467FF442AE64001C42FB
:1051100000F10400FAD03BE6B3F5AA7F18D8E80BFB
:1051200000F1780E4FEA4E017730DBE54FF4805105
:10513000EBE60121D8F80430921001FA02F21A438A
:10514000C8F80420614677E70123CBF8043025E74F
:1051500040F25452934220D8A80C00F17D0E4FEA41
:105160004E017C30BEE51032A4E6542A26D81A0B34
:1051700002F16F0149006E3248E7BC68626822F0B4
:10518000030205E7CAF30B0000287FF4A8AE4244EF
:10519000BB6842F001025A60ECE6FE214FF07F0E40
:1051A0007E209FE501224FF00009C1E604F10801CD
:1051B0003046FFF75FFAD9F80010DBE6B2F5AA7FB8
:1051C00005D8DA0B02F17801490077321EE740F288
:1051D00054518A4205D89A0C02F17D0149007C3273
:1051E00014E7FE217E2211E77B6884E7E808431C70
:1051F0005B0005E644040020830770B4CDB23DD0C7
:10520000531E02B30278AA421ED0421C04E0D3B15E
:105210000478013BAC4217D012F0030F104602F1A4
:105220000102F4D1032B11D853B30278AA420BD058
:105230000344421C02E00178A94205D09342104683
:1052400002F10102F7D1002070BC704704460E0243
:1052500006F47F462E4346EA064622682046724000
:10526000A2F1013121EA020212F0803F04F10404AC
:10527000DBD1043B032B2046EFD8D5E71346D1E71B
:105280001846E1E78842F0B50DD98B1898420AD24A
:105290008118002A51D09A1A13F8014D934201F84F
:1052A000014DF9D1F0BD0F2A48D941EA00039B070F
:1052B00046D1154600F1100401F1100353F8106CAB
:1052C000103D44F8106C53F80C6C0F2D44F80C6C26
:1052D00053F8086C04F1100444F8186C53F8046C8B
:1052E00003F1100344F8146CE8D8A2F1100323F082
:1052F0000F0302F00F0E1033BEF1030F19440344E5
:1053000021D90E4674461D1F56F8047B043C032C1D
:1053100045F8047FF8D8AEF1040424F00304043403
:105320002344214402F0030262B1013B0A4411F814
:10533000014B8A4203F8014FF9D1F0BD0346F3E770
:105340000346F2E7F0BD7246EEE700BF70B4840793
:1053500046D0541E002A41D0CDB2034602E0621E60
:10536000E4B3144603F8015B9A07F8D1032C2ED955
:10537000CDB245EA05250F2C45EA054519D9264643
:1053800003F11002103E0F2E42F8105C42F80C5C44
:1053900042F8085C42F8045C02F11002F2D8A4F171
:1053A000100222F00F0204F00F041032032C1344F9
:1053B0000DD91E462246043A032A46F8045BFAD861
:1053C000221F22F003020432134404F003042CB120
:1053D000C9B21C4403F8011BA342FBD170BC704747
:1053E00014460346C2E700BF704700BF704700BFC6
:1053F000C26C70B505460C4652B152F824308BB1E0
:10540000196842F82410002218461A61DA6070BD4B
:105410002122042100F09EFDE86402460028ECD120
:10542000002070BD012101FA04F6721D2846920089
:1054300000F090FD03460028F2D044608660E2E769
:1054400031B1C36C4A6853F82200086043F8221057
:10545000704700BFF0B50C4605460E6983B001F1F8
:10546000140E0027DEF80000013781B202FB013183
:10547000000C0B0C02FB003389B201EB0341BE426E
:105480004EF8041B4FEA1343ECDC3BB1A268964292
:1054900007DA04EB8602013653612661204603B029
:1054A000F0BD6168284601310193FFF7A1FF07466F
:1054B000226904F10C01023292000C30FCF7D6F99B
:1054C000EA6C6168019B52F82100206042F821409B
:1054D0003C46DEE7030C1B04B3B90004102310F0B4
:1054E0007F4F04BF0002083310F0704F04BF00016B
:1054F000043310F0404F04BF80000233002807DB64
:10550000420003D4202070470023E8E7581C70476E
:1055100018467047036813F0070207D0D90720D454
:105520009A0720D49B0803600220704799B209B9FA
:105530001B0C102213F0FF0F04BF1B0A08321907BF
:1055400004BF1B090432990704BF9B080232D90724
:1055500004D45B0801D1202070470132036010465B
:105560007047002070475B0803600120704700BF50
:1055700010B50C460121FFF73BFF01224461026197
:1055800010BD00BF2DE9F04F0D69166985B0B54219
:105590000C46914604DA2A464C463546894616465C
:1055A000A36805EB060861689845C8BF0131FFF79D
:1055B0001FFF00F1140A0AEB880BDA45019005D2AF
:1055C0005346002143F8041B9B45FBD809F11409FD
:1055D00009EB860304F11402994502EB850C59D2BC
:1055E000CDF808B0CDF80C809B46904659F8047B66
:1055F0001FFA87FEBEF1000F1FD047465646002116
:1056000000E00646304657F8045B3468ABB2A2B2FD
:105610000EFB03222D0C240C0EFB0544531804EB47
:1056200013419AB242EA0142BC454FEA114140F8A7
:10563000042BE6D8716059F8047C3F0C22D0DAF8CC
:105640000030002255461E464046964600E025465C
:105650002C460288360C07FB026699B206EB0E0256
:1056600041EA024344F8043B50F8041B6E68090CFD
:10567000B3B207FB0131844501EB12434FEA134EED
:10568000E5D86B60CB450AF1040AAFD8DDF808B065
:10569000DDF80C80B8F1000F0BDD5BF8043CABF1DA
:1056A000040B1BB105E05BF8043D13B9B8F1010828
:1056B000F9D10198C0F8108005B0BDE8F08F00BFA7
:1056C00012F003032DE9F041144607462ED10E4691
:1056D000A4101CD0BD6C95B3E3074FF0000806D4AE
:1056E000641014D02868A8B10546E307F8D52A4607
:1056F00031463846FFF746FFB6B17268FB6C64105E
:1057000053F82210316043F822600646EAD1304651
:10571000BDE8F0812A4629463846FFF733FF286066
:10572000C0F800800546E0E70646D9E70B4A013B92
:1057300052F823200023FFF78DFE0646C8E701211B
:105740003846FFF755FE40F27121012200234161E6
:1057500002610546B8640360BEE700BFB865000893
:105760002DE9F84F0B69541104EB03088B6808F11D
:1057700001059D420E4691468346496804DD5B0063
:105780009D4201F10101FADC5846FFF731FE002C81
:1057900000F1140237DD02EB8403002142F8041B00
:1057A0009342FBD1346906F1140119F01F0901EB92
:1057B000840E20D0C9F1200C00240F681A4607FA85
:1057C00009FA4AEA040443F8044B51F8044B8E45A5
:1057D00024FA0CF4F1D854600CB108F10205DBF89E
:1057E0004C307268013D53F822100561316043F876
:1057F0002260BDE8F88F043B51F8042B8E4543F836
:10580000042FF9D8EBE71346CCE700BF02690B6918
:10581000D21A12D19B0014301431194410B403442D
:1058200001E098420BD253F8044D51F8042D9442F4
:10583000F7D007D3012010BC7047104670470020F6
:1058400010BC70474FF0FF30F5E700BF2DE9F0477F
:105850000B690C46116990465B1A002B18D1890020
:1058600004F1140602F114077318394401E09E4252
:1058700069D253F8045D51F8042D9542F7D06BD2EC
:105880002346B24644463E4698464FF0010906E09C
:1058900066DB04F1140602F1140A4FF00009616896
:1058A000FFF7A6FD5546D4F810E0D8F8103037467B
:1058B000C0F80C900AEB830C06EB8E0600F1140482
:1058C0004FF0000957F8042B55F8041B1FFA82F813
:1058D00008EB09031FFA81F8090CC8EB0303C1EBBD
:1058E000124202EB23429BB243EA0243AC4544F826
:1058F000043B4FEA2249E5D8BE4218D9A046BC462F
:105900005CF8042B95B205EB09010B1403EB124272
:105910008BB243EA0243664548F8043B4FEA22490A
:10592000EED8FF43374427F0030704373C44043CD8
:105930002BB954F8043D0EF1FF3E002BF9D0C0F80E
:1059400010E0BDE8F0870021FFF752FD012200239F
:1059500002614361BDE8F087BA464FF000099EE757
:10596000234604F1140A08F1140644464FF00109D5
:10597000984694E7F0B5012183B01C46C3F30A555D
:105980001646FFF735FDC4F3130407460DB144F482
:105990008014019406B302A840F8086DFFF7BAFD21
:1059A000002830D19DE80C007A61002B0CBF01214A
:1059B0000221BB613961D5B9089A07EB8103A0F2D6
:1059C000324010601869FFF785FD099BC0EB41105C
:1059D0001860384603B0F0BD01A8FFF79BFD019B9E
:1059E0000122114620303A617B61002DE4D0A5F2FE
:1059F0003343089A03441360099BC0F135001860D3
:105A0000384603B0F0BD019BC0F12001009A03FAB3
:105A100001F10A43C34001937A61C6E72DE9F04FD3
:105A2000174683B0002900F08F800D46814607F1AC
:105A30000B04FFF7D9FC55F804EC162C2EF00306E6
:105A4000A5F108083CD810221446A7423DD896423A
:105A500042DAC64B08EB060099688842416800F0BC
:105A6000D78021F0010303445B68DB074CD51EF0AF
:105A7000010F00F09D8039464846FFF711F90746AF
:105A800000283AD055F8043CA0F1080223F00103A5
:105A900043449A4200F03E81321F242A00F22B81B7
:105AA000132A00F2FF8003462A46116819605168E4
:105AB000596092689A6029464846FEF7DBFD1CE073
:105AC00024F00704002C2246BFDA0C230020C9F87A
:105AD000003003B0BDE8F08F2F46331B0F2BD8F8F2
